{
	"data": {
		"bytecode": {
			"linkReferences": {},
			"object": "608060405234801561000f575f80fd5b50604051610adc380380610adc833981810160405281019061003191906100d4565b805f806101000a81548173ffffffffffffffffffffffffffffffffffffffff021916908373ffffffffffffffffffffffffffffffffffffffff160217905550506100ff565b5f80fd5b5f73ffffffffffffffffffffffffffffffffffffffff82169050919050565b5f6100a38261007a565b9050919050565b6100b381610099565b81146100bd575f80fd5b50565b5f815190506100ce816100aa565b92915050565b5f602082840312156100e9576100e8610076565b5b5f6100f6848285016100c0565b91505092915050565b6109d08061010c5f395ff3fe60806040526004361061001d575f3560e01c8063fb61695c14610021575b5f80fd5b61003b60048036038101906100369190610401565b61003d565b005b5f610047836101de565b90505f73ffffffffffffffffffffffffffffffffffffffff168173ffffffffffffffffffffffffffffffffffffffff16036100b7576040517f08c379a00000000000000000000000000000000000000000000000000000000081526004016100ae90610499565b60405180910390fd5b5f600160288473ffffffffffffffffffffffffffffffffffffffff1678ffffffffffffffffffffffffffffffffffffffffffffffffff16901b6100fa9190610508565b90505f610108856012610283565b905034811461014c576040517f08c379a0000000000000000000000000000000000000000000000000000000008152600401610143906105c4565b60405180910390fd5b5f8054906101000a900473ffffffffffffffffffffffffffffffffffffffff1673ffffffffffffffffffffffffffffffffffffffff166360b068be828785306040518563ffffffff1660e01b81526004016101a99392919061060f565b5f604051808303818588803b1580156101c0575f80fd5b505af11580156101d2573d5f803e3d5ffd5b50505050505050505050565b5f808290505f8054906101000a900473ffffffffffffffffffffffffffffffffffffffff1673ffffffffffffffffffffffffffffffffffffffff1663ff378719826040518263ffffffff1660e01b815260040161023b919061065f565b6020604051808303815f875af1158015610257573d5f803e3d5ffd5b505050506040513d601f19601f8201168201806040525081019061027b919061068c565b915050919050565b5f8064ffffffffff60d085901c16905060068360ff16036102a657809150610369565b60068360ff16106102dc576006836102be91906106b7565b600a6102ca919061081a565b816102d59190610864565b9150610368565b5f8360066102ea91906106b7565b600a6102f6919061081a565b8261030191906108d2565b14610341576040517f08c379a00000000000000000000000000000000000000000000000000000000081526004016103389061094c565b60405180910390fd5b82600661034e91906106b7565b600a61035a919061081a565b81610365919061096a565b91505b5b5092915050565b5f80fd5b5f819050919050565b61038681610374565b8114610390575f80fd5b50565b5f813590506103a18161037d565b92915050565b5f73ffffffffffffffffffffffffffffffffffffffff82169050919050565b5f6103d0826103a7565b9050919050565b6103e0816103c6565b81146103ea575f80fd5b50565b5f813590506103fb816103d7565b92915050565b5f806040838503121561041757610416610370565b5b5f61042485828601610393565b9250506020610435858286016103ed565b9150509250929050565b5f82825260208201905092915050565b7f556e737570706f7274656420746f6b656e0000000000000000000000000000005f82015250565b5f61048360118361043f565b915061048e8261044f565b602082019050919050565b5f6020820190508181035f8301526104b081610477565b9050919050565b5f78ffffffffffffffffffffffffffffffffffffffffffffffffff82169050919050565b7f4e487b71000000000000000000000000000000000000000000000000000000005f52601160045260245ffd5b5f610512826104b7565b915061051d836104b7565b9250828201905078ffffffffffffffffffffffffffffffffffffffffffffffffff81111561054e5761054d6104db565b5b92915050565b7f54782076616c756520646f6573206e6f74206d617463682074686520616d6f755f8201527f6e74000000000000000000000000000000000000000000000000000000000000602082015250565b5f6105ae60228361043f565b91506105b982610554565b604082019050919050565b5f6020820190508181035f8301526105db816105a2565b9050919050565b6105eb81610374565b82525050565b6105fa816104b7565b82525050565b610609816103c6565b82525050565b5f6060820190506106225f8301866105e2565b61062f60208301856105f1565b61063c6040830184610600565b949350505050565b5f60ff82169050919050565b61065981610644565b82525050565b5f6020820190506106725f830184610650565b92915050565b5f81519050610686816103d7565b92915050565b5f602082840312156106a1576106a0610370565b5b5f6106ae84828501610678565b91505092915050565b5f6106c182610644565b91506106cc83610644565b9250828203905060ff8111156106e5576106e46104db565b5b92915050565b5f8160011c9050919050565b5f808291508390505b60018511156107405780860481111561071c5761071b6104db565b5b600185161561072b5780820291505b8081029050610739856106eb565b9450610700565b94509492505050565b5f826107585760019050610813565b81610765575f9050610813565b816001811461077b5760028114610785576107b4565b6001915050610813565b60ff841115610797576107966104db565b5b8360020a9150848211156107ae576107ad6104db565b5b50610813565b5060208310610133831016604e8410600b84101617156107e95782820a9050838111156107e4576107e36104db565b5b610813565b6107f684848460016106f7565b9250905081840481111561080d5761080c6104db565b5b81810290505b9392505050565b5f61082482610374565b915061082f83610644565b925061085c7fffffffffffffffffffffffffffffffffffffffffffffffffffffffffffffffff8484610749565b905092915050565b5f61086e82610374565b915061087983610374565b925082820261088781610374565b9150828204841483151761089e5761089d6104db565b5b5092915050565b7f4e487b71000000000000000000000000000000000000000000000000000000005f52601260045260245ffd5b5f6108dc82610374565b91506108e783610374565b9250826108f7576108f66108a5565b5b828206905092915050565b7f446563696d616c73206f766572666c6f770000000000000000000000000000005f82015250565b5f61093660118361043f565b915061094182610902565b602082019050919050565b5f6020820190508181035f8301526109638161092a565b9050919050565b5f61097482610374565b915061097f83610374565b92508261098f5761098e6108a5565b5b82820490509291505056fea264697066735822122063880f46907404a0c39c8a0d18e01e1d2ca224e884c7e0650efeef88deccf71264736f6c634300081a0033",
			"opcodes": "PUSH1 0x80 PUSH1 0x40 MSTORE CALLVALUE DUP1 ISZERO PUSH2 0xF JUMPI PUSH0 DUP1 REVERT JUMPDEST POP PUSH1 0x40 MLOAD PUSH2 0xADC CODESIZE SUB DUP1 PUSH2 0xADC DUP4 CODECOPY DUP2 DUP2 ADD PUSH1 0x40 MSTORE DUP2 ADD SWAP1 PUSH2 0x31 SWAP2 SWAP1 PUSH2 0xD4 JUMP JUMPDEST DUP1 PUSH0 DUP1 PUSH2 0x100 EXP DUP2 SLOAD DUP2 PUSH20 0xFFFFFFFFFFFFFFFFFFFFFFFFFFFFFFFFFFFFFFFF MUL NOT AND SWAP1 DUP4 PUSH20 0xFFFFFFFFFFFFFFFFFFFFFFFFFFFFFFFFFFFFFFFF AND MUL OR SWAP1 SSTORE POP POP PUSH2 0xFF JUMP JUMPDEST PUSH0 DUP1 REVERT JUMPDEST PUSH0 PUSH20 0xFFFFFFFFFFFFFFFFFFFFFFFFFFFFFFFFFFFFFFFF DUP3 AND SWAP1 POP SWAP2 SWAP1 POP JUMP JUMPDEST PUSH0 PUSH2 0xA3 DUP3 PUSH2 0x7A JUMP JUMPDEST SWAP1 POP SWAP2 SWAP1 POP JUMP JUMPDEST PUSH2 0xB3 DUP2 PUSH2 0x99 JUMP JUMPDEST DUP2 EQ PUSH2 0xBD JUMPI PUSH0 DUP1 REVERT JUMPDEST POP JUMP JUMPDEST PUSH0 DUP2 MLOAD SWAP1 POP PUSH2 0xCE DUP2 PUSH2 0xAA JUMP JUMPDEST SWAP3 SWAP2 POP POP JUMP JUMPDEST PUSH0 PUSH1 0x20 DUP3 DUP5 SUB SLT ISZERO PUSH2 0xE9 JUMPI PUSH2 0xE8 PUSH2 0x76 JUMP JUMPDEST JUMPDEST PUSH0 PUSH2 0xF6 DUP5 DUP3 DUP6 ADD PUSH2 0xC0 JUMP JUMPDEST SWAP2 POP POP SWAP3 SWAP2 POP POP JUMP JUMPDEST PUSH2 0x9D0 DUP1 PUSH2 0x10C PUSH0 CODECOPY PUSH0 RETURN INVALID PUSH1 0x80 PUSH1 0x40 MSTORE PUSH1 0x4 CALLDATASIZE LT PUSH2 0x1D JUMPI PUSH0 CALLDATALOAD PUSH1 0xE0 SHR DUP1 PUSH4 0xFB61695C EQ PUSH2 0x21 JUMPI JUMPDEST PUSH0 DUP1 REVERT JUMPDEST PUSH2 0x3B PUSH1 0x4 DUP1 CALLDATASIZE SUB DUP2 ADD SWAP1 PUSH2 0x36 SWAP2 SWAP1 PUSH2 0x401 JUMP JUMPDEST PUSH2 0x3D JUMP JUMPDEST STOP JUMPDEST PUSH0 PUSH2 0x47 DUP4 PUSH2 0x1DE JUMP JUMPDEST SWAP1 POP PUSH0 PUSH20 0xFFFFFFFFFFFFFFFFFFFFFFFFFFFFFFFFFFFFFFFF AND DUP2 PUSH20 0xFFFFFFFFFFFFFFFFFFFFFFFFFFFFFFFFFFFFFFFF AND SUB PUSH2 0xB7 JUMPI PUSH1 0x40 MLOAD PUSH32 0x8C379A000000000000000000000000000000000000000000000000000000000 DUP2 MSTORE PUSH1 0x4 ADD PUSH2 0xAE SWAP1 PUSH2 0x499 JUMP JUMPDEST PUSH1 0x40 MLOAD DUP1 SWAP2 SUB SWAP1 REVERT JUMPDEST PUSH0 PUSH1 0x1 PUSH1 0x28 DUP5 PUSH20 0xFFFFFFFFFFFFFFFFFFFFFFFFFFFFFFFFFFFFFFFF AND PUSH25 0xFFFFFFFFFFFFFFFFFFFFFFFFFFFFFFFFFFFFFFFFFFFFFFFFFF AND SWAP1 SHL PUSH2 0xFA SWAP2 SWAP1 PUSH2 0x508 JUMP JUMPDEST SWAP1 POP PUSH0 PUSH2 0x108 DUP6 PUSH1 0x12 PUSH2 0x283 JUMP JUMPDEST SWAP1 POP CALLVALUE DUP2 EQ PUSH2 0x14C JUMPI PUSH1 0x40 MLOAD PUSH32 0x8C379A000000000000000000000000000000000000000000000000000000000 DUP2 MSTORE PUSH1 0x4 ADD PUSH2 0x143 SWAP1 PUSH2 0x5C4 JUMP JUMPDEST PUSH1 0x40 MLOAD DUP1 SWAP2 SUB SWAP1 REVERT JUMPDEST PUSH0 DUP1 SLOAD SWAP1 PUSH2 0x100 EXP SWAP1 DIV PUSH20 0xFFFFFFFFFFFFFFFFFFFFFFFFFFFFFFFFFFFFFFFF AND PUSH20 0xFFFFFFFFFFFFFFFFFFFFFFFFFFFFFFFFFFFFFFFF AND PUSH4 0x60B068BE DUP3 DUP8 DUP6 ADDRESS PUSH1 0x40 MLOAD DUP6 PUSH4 0xFFFFFFFF AND PUSH1 0xE0 SHL DUP2 MSTORE PUSH1 0x4 ADD PUSH2 0x1A9 SWAP4 SWAP3 SWAP2 SWAP1 PUSH2 0x60F JUMP JUMPDEST PUSH0 PUSH1 0x40 MLOAD DUP1 DUP4 SUB DUP2 DUP6 DUP9 DUP1 EXTCODESIZE ISZERO DUP1 ISZERO PUSH2 0x1C0 JUMPI PUSH0 DUP1 REVERT JUMPDEST POP GAS CALL ISZERO DUP1 ISZERO PUSH2 0x1D2 JUMPI RETURNDATASIZE PUSH0 DUP1 RETURNDATACOPY RETURNDATASIZE PUSH0 REVERT JUMPDEST POP POP POP POP POP POP POP POP POP POP JUMP JUMPDEST PUSH0 DUP1 DUP3 SWAP1 POP PUSH0 DUP1 SLOAD SWAP1 PUSH2 0x100 EXP SWAP1 DIV PUSH20 0xFFFFFFFFFFFFFFFFFFFFFFFFFFFFFFFFFFFFFFFF AND PUSH20 0xFFFFFFFFFFFFFFFFFFFFFFFFFFFFFFFFFFFFFFFF AND PUSH4 0xFF378719 DUP3 PUSH1 0x40 MLOAD DUP3 PUSH4 0xFFFFFFFF AND PUSH1 0xE0 SHL DUP2 MSTORE PUSH1 0x4 ADD PUSH2 0x23B SWAP2 SWAP1 PUSH2 0x65F JUMP JUMPDEST PUSH1 0x20 PUSH1 0x40 MLOAD DUP1 DUP4 SUB DUP2 PUSH0 DUP8 GAS CALL ISZERO DUP1 ISZERO PUSH2 0x257 JUMPI RETURNDATASIZE PUSH0 DUP1 RETURNDATACOPY RETURNDATASIZE PUSH0 REVERT JUMPDEST POP POP POP POP PUSH1 0x40 MLOAD RETURNDATASIZE PUSH1 0x1F NOT PUSH1 0x1F DUP3 ADD AND DUP3 ADD DUP1 PUSH1 0x40 MSTORE POP DUP2 ADD SWAP1 PUSH2 0x27B SWAP2 SWAP1 PUSH2 0x68C JUMP JUMPDEST SWAP2 POP POP SWAP2 SWAP1 POP JUMP JUMPDEST PUSH0 DUP1 PUSH5 0xFFFFFFFFFF PUSH1 0xD0 DUP6 SWAP1 SHR AND SWAP1 POP PUSH1 0x6 DUP4 PUSH1 0xFF AND SUB PUSH2 0x2A6 JUMPI DUP1 SWAP2 POP PUSH2 0x369 JUMP JUMPDEST PUSH1 0x6 DUP4 PUSH1 0xFF AND LT PUSH2 0x2DC JUMPI PUSH1 0x6 DUP4 PUSH2 0x2BE SWAP2 SWAP1 PUSH2 0x6B7 JUMP JUMPDEST PUSH1 0xA PUSH2 0x2CA SWAP2 SWAP1 PUSH2 0x81A JUMP JUMPDEST DUP2 PUSH2 0x2D5 SWAP2 SWAP1 PUSH2 0x864 JUMP JUMPDEST SWAP2 POP PUSH2 0x368 JUMP JUMPDEST PUSH0 DUP4 PUSH1 0x6 PUSH2 0x2EA SWAP2 SWAP1 PUSH2 0x6B7 JUMP JUMPDEST PUSH1 0xA PUSH2 0x2F6 SWAP2 SWAP1 PUSH2 0x81A JUMP JUMPDEST DUP3 PUSH2 0x301 SWAP2 SWAP1 PUSH2 0x8D2 JUMP JUMPDEST EQ PUSH2 0x341 JUMPI PUSH1 0x40 MLOAD PUSH32 0x8C379A000000000000000000000000000000000000000000000000000000000 DUP2 MSTORE PUSH1 0x4 ADD PUSH2 0x338 SWAP1 PUSH2 0x94C JUMP JUMPDEST PUSH1 0x40 MLOAD DUP1 SWAP2 SUB SWAP1 REVERT JUMPDEST DUP3 PUSH1 0x6 PUSH2 0x34E SWAP2 SWAP1 PUSH2 0x6B7 JUMP JUMPDEST PUSH1 0xA PUSH2 0x35A SWAP2 SWAP1 PUSH2 0x81A JUMP JUMPDEST DUP2 PUSH2 0x365 SWAP2 SWAP1 PUSH2 0x96A JUMP JUMPDEST SWAP2 POP JUMPDEST JUMPDEST POP SWAP3 SWAP2 POP POP JUMP JUMPDEST PUSH0 DUP1 REVERT JUMPDEST PUSH0 DUP2 SWAP1 POP SWAP2 SWAP1 POP JUMP JUMPDEST PUSH2 0x386 DUP2 PUSH2 0x374 JUMP JUMPDEST DUP2 EQ PUSH2 0x390 JUMPI PUSH0 DUP1 REVERT JUMPDEST POP JUMP JUMPDEST PUSH0 DUP2 CALLDATALOAD SWAP1 POP PUSH2 0x3A1 DUP2 PUSH2 0x37D JUMP JUMPDEST SWAP3 SWAP2 POP POP JUMP JUMPDEST PUSH0 PUSH20 0xFFFFFFFFFFFFFFFFFFFFFFFFFFFFFFFFFFFFFFFF DUP3 AND SWAP1 POP SWAP2 SWAP1 POP JUMP JUMPDEST PUSH0 PUSH2 0x3D0 DUP3 PUSH2 0x3A7 JUMP JUMPDEST SWAP1 POP SWAP2 SWAP1 POP JUMP JUMPDEST PUSH2 0x3E0 DUP2 PUSH2 0x3C6 JUMP JUMPDEST DUP2 EQ PUSH2 0x3EA JUMPI PUSH0 DUP1 REVERT JUMPDEST POP JUMP JUMPDEST PUSH0 DUP2 CALLDATALOAD SWAP1 POP PUSH2 0x3FB DUP2 PUSH2 0x3D7 JUMP JUMPDEST SWAP3 SWAP2 POP POP JUMP JUMPDEST PUSH0 DUP1 PUSH1 0x40 DUP4 DUP6 SUB SLT ISZERO PUSH2 0x417 JUMPI PUSH2 0x416 PUSH2 0x370 JUMP JUMPDEST JUMPDEST PUSH0 PUSH2 0x424 DUP6 DUP3 DUP7 ADD PUSH2 0x393 JUMP JUMPDEST SWAP3 POP POP PUSH1 0x20 PUSH2 0x435 DUP6 DUP3 DUP7 ADD PUSH2 0x3ED JUMP JUMPDEST SWAP2 POP POP SWAP3 POP SWAP3 SWAP1 POP JUMP JUMPDEST PUSH0 DUP3 DUP3 MSTORE PUSH1 0x20 DUP3 ADD SWAP1 POP SWAP3 SWAP2 POP POP JUMP JUMPDEST PUSH32 0x556E737570706F7274656420746F6B656E000000000000000000000000000000 PUSH0 DUP3 ADD MSTORE POP JUMP JUMPDEST PUSH0 PUSH2 0x483 PUSH1 0x11 DUP4 PUSH2 0x43F JUMP JUMPDEST SWAP2 POP PUSH2 0x48E DUP3 PUSH2 0x44F JUMP JUMPDEST PUSH1 0x20 DUP3 ADD SWAP1 POP SWAP2 SWAP1 POP JUMP JUMPDEST PUSH0 PUSH1 0x20 DUP3 ADD SWAP1 POP DUP2 DUP2 SUB PUSH0 DUP4 ADD MSTORE PUSH2 0x4B0 DUP2 PUSH2 0x477 JUMP JUMPDEST SWAP1 POP SWAP2 SWAP1 POP JUMP JUMPDEST PUSH0 PUSH25 0xFFFFFFFFFFFFFFFFFFFFFFFFFFFFFFFFFFFFFFFFFFFFFFFFFF DUP3 AND SWAP1 POP SWAP2 SWAP1 POP JUMP JUMPDEST PUSH32 0x4E487B7100000000000000000000000000000000000000000000000000000000 PUSH0 MSTORE PUSH1 0x11 PUSH1 0x4 MSTORE PUSH1 0x24 PUSH0 REVERT JUMPDEST PUSH0 PUSH2 0x512 DUP3 PUSH2 0x4B7 JUMP JUMPDEST SWAP2 POP PUSH2 0x51D DUP4 PUSH2 0x4B7 JUMP JUMPDEST SWAP3 POP DUP3 DUP3 ADD SWAP1 POP PUSH25 0xFFFFFFFFFFFFFFFFFFFFFFFFFFFFFFFFFFFFFFFFFFFFFFFFFF DUP2 GT ISZERO PUSH2 0x54E JUMPI PUSH2 0x54D PUSH2 0x4DB JUMP JUMPDEST JUMPDEST SWAP3 SWAP2 POP POP JUMP JUMPDEST PUSH32 0x54782076616C756520646F6573206E6F74206D617463682074686520616D6F75 PUSH0 DUP3 ADD MSTORE PUSH32 0x6E74000000000000000000000000000000000000000000000000000000000000 PUSH1 0x20 DUP3 ADD MSTORE POP JUMP JUMPDEST PUSH0 PUSH2 0x5AE PUSH1 0x22 DUP4 PUSH2 0x43F JUMP JUMPDEST SWAP2 POP PUSH2 0x5B9 DUP3 PUSH2 0x554 JUMP JUMPDEST PUSH1 0x40 DUP3 ADD SWAP1 POP SWAP2 SWAP1 POP JUMP JUMPDEST PUSH0 PUSH1 0x20 DUP3 ADD SWAP1 POP DUP2 DUP2 SUB PUSH0 DUP4 ADD MSTORE PUSH2 0x5DB DUP2 PUSH2 0x5A2 JUMP JUMPDEST SWAP1 POP SWAP2 SWAP1 POP JUMP JUMPDEST PUSH2 0x5EB DUP2 PUSH2 0x374 JUMP JUMPDEST DUP3 MSTORE POP POP JUMP JUMPDEST PUSH2 0x5FA DUP2 PUSH2 0x4B7 JUMP JUMPDEST DUP3 MSTORE POP POP JUMP JUMPDEST PUSH2 0x609 DUP2 PUSH2 0x3C6 JUMP JUMPDEST DUP3 MSTORE POP POP JUMP JUMPDEST PUSH0 PUSH1 0x60 DUP3 ADD SWAP1 POP PUSH2 0x622 PUSH0 DUP4 ADD DUP7 PUSH2 0x5E2 JUMP JUMPDEST PUSH2 0x62F PUSH1 0x20 DUP4 ADD DUP6 PUSH2 0x5F1 JUMP JUMPDEST PUSH2 0x63C PUSH1 0x40 DUP4 ADD DUP5 PUSH2 0x600 JUMP JUMPDEST SWAP5 SWAP4 POP POP POP POP JUMP JUMPDEST PUSH0 PUSH1 0xFF DUP3 AND SWAP1 POP SWAP2 SWAP1 POP JUMP JUMPDEST PUSH2 0x659 DUP2 PUSH2 0x644 JUMP JUMPDEST DUP3 MSTORE POP POP JUMP JUMPDEST PUSH0 PUSH1 0x20 DUP3 ADD SWAP1 POP PUSH2 0x672 PUSH0 DUP4 ADD DUP5 PUSH2 0x650 JUMP JUMPDEST SWAP3 SWAP2 POP POP JUMP JUMPDEST PUSH0 DUP2 MLOAD SWAP1 POP PUSH2 0x686 DUP2 PUSH2 0x3D7 JUMP JUMPDEST SWAP3 SWAP2 POP POP JUMP JUMPDEST PUSH0 PUSH1 0x20 DUP3 DUP5 SUB SLT ISZERO PUSH2 0x6A1 JUMPI PUSH2 0x6A0 PUSH2 0x370 JUMP JUMPDEST JUMPDEST PUSH0 PUSH2 0x6AE DUP5 DUP3 DUP6 ADD PUSH2 0x678 JUMP JUMPDEST SWAP2 POP POP SWAP3 SWAP2 POP POP JUMP JUMPDEST PUSH0 PUSH2 0x6C1 DUP3 PUSH2 0x644 JUMP JUMPDEST SWAP2 POP PUSH2 0x6CC DUP4 PUSH2 0x644 JUMP JUMPDEST SWAP3 POP DUP3 DUP3 SUB SWAP1 POP PUSH1 0xFF DUP2 GT ISZERO PUSH2 0x6E5 JUMPI PUSH2 0x6E4 PUSH2 0x4DB JUMP JUMPDEST JUMPDEST SWAP3 SWAP2 POP POP JUMP JUMPDEST PUSH0 DUP2 PUSH1 0x1 SHR SWAP1 POP SWAP2 SWAP1 POP JUMP JUMPDEST PUSH0 DUP1 DUP3 SWAP2 POP DUP4 SWAP1 POP JUMPDEST PUSH1 0x1 DUP6 GT ISZERO PUSH2 0x740 JUMPI DUP1 DUP7 DIV DUP2 GT ISZERO PUSH2 0x71C JUMPI PUSH2 0x71B PUSH2 0x4DB JUMP JUMPDEST JUMPDEST PUSH1 0x1 DUP6 AND ISZERO PUSH2 0x72B JUMPI DUP1 DUP3 MUL SWAP2 POP JUMPDEST DUP1 DUP2 MUL SWAP1 POP PUSH2 0x739 DUP6 PUSH2 0x6EB JUMP JUMPDEST SWAP5 POP PUSH2 0x700 JUMP JUMPDEST SWAP5 POP SWAP5 SWAP3 POP POP POP JUMP JUMPDEST PUSH0 DUP3 PUSH2 0x758 JUMPI PUSH1 0x1 SWAP1 POP PUSH2 0x813 JUMP JUMPDEST DUP2 PUSH2 0x765 JUMPI PUSH0 SWAP1 POP PUSH2 0x813 JUMP JUMPDEST DUP2 PUSH1 0x1 DUP2 EQ PUSH2 0x77B JUMPI PUSH1 0x2 DUP2 EQ PUSH2 0x785 JUMPI PUSH2 0x7B4 JUMP JUMPDEST PUSH1 0x1 SWAP2 POP POP PUSH2 0x813 JUMP JUMPDEST PUSH1 0xFF DUP5 GT ISZERO PUSH2 0x797 JUMPI PUSH2 0x796 PUSH2 0x4DB JUMP JUMPDEST JUMPDEST DUP4 PUSH1 0x2 EXP SWAP2 POP DUP5 DUP3 GT ISZERO PUSH2 0x7AE JUMPI PUSH2 0x7AD PUSH2 0x4DB JUMP JUMPDEST JUMPDEST POP PUSH2 0x813 JUMP JUMPDEST POP PUSH1 0x20 DUP4 LT PUSH2 0x133 DUP4 LT AND PUSH1 0x4E DUP5 LT PUSH1 0xB DUP5 LT AND OR ISZERO PUSH2 0x7E9 JUMPI DUP3 DUP3 EXP SWAP1 POP DUP4 DUP2 GT ISZERO PUSH2 0x7E4 JUMPI PUSH2 0x7E3 PUSH2 0x4DB JUMP JUMPDEST JUMPDEST PUSH2 0x813 JUMP JUMPDEST PUSH2 0x7F6 DUP5 DUP5 DUP5 PUSH1 0x1 PUSH2 0x6F7 JUMP JUMPDEST SWAP3 POP SWAP1 POP DUP2 DUP5 DIV DUP2 GT ISZERO PUSH2 0x80D JUMPI PUSH2 0x80C PUSH2 0x4DB JUMP JUMPDEST JUMPDEST DUP2 DUP2 MUL SWAP1 POP JUMPDEST SWAP4 SWAP3 POP POP POP JUMP JUMPDEST PUSH0 PUSH2 0x824 DUP3 PUSH2 0x374 JUMP JUMPDEST SWAP2 POP PUSH2 0x82F DUP4 PUSH2 0x644 JUMP JUMPDEST SWAP3 POP PUSH2 0x85C PUSH32 0xFFFFFFFFFFFFFFFFFFFFFFFFFFFFFFFFFFFFFFFFFFFFFFFFFFFFFFFFFFFFFFFF DUP5 DUP5 PUSH2 0x749 JUMP JUMPDEST SWAP1 POP SWAP3 SWAP2 POP POP JUMP JUMPDEST PUSH0 PUSH2 0x86E DUP3 PUSH2 0x374 JUMP JUMPDEST SWAP2 POP PUSH2 0x879 DUP4 PUSH2 0x374 JUMP JUMPDEST SWAP3 POP DUP3 DUP3 MUL PUSH2 0x887 DUP2 PUSH2 0x374 JUMP JUMPDEST SWAP2 POP DUP3 DUP3 DIV DUP5 EQ DUP4 ISZERO OR PUSH2 0x89E JUMPI PUSH2 0x89D PUSH2 0x4DB JUMP JUMPDEST JUMPDEST POP SWAP3 SWAP2 POP POP JUMP JUMPDEST PUSH32 0x4E487B7100000000000000000000000000000000000000000000000000000000 PUSH0 MSTORE PUSH1 0x12 PUSH1 0x4 MSTORE PUSH1 0x24 PUSH0 REVERT JUMPDEST PUSH0 PUSH2 0x8DC DUP3 PUSH2 0x374 JUMP JUMPDEST SWAP2 POP PUSH2 0x8E7 DUP4 PUSH2 0x374 JUMP JUMPDEST SWAP3 POP DUP3 PUSH2 0x8F7 JUMPI PUSH2 0x8F6 PUSH2 0x8A5 JUMP JUMPDEST JUMPDEST DUP3 DUP3 MOD SWAP1 POP SWAP3 SWAP2 POP POP JUMP JUMPDEST PUSH32 0x446563696D616C73206F766572666C6F77000000000000000000000000000000 PUSH0 DUP3 ADD MSTORE POP JUMP JUMPDEST PUSH0 PUSH2 0x936 PUSH1 0x11 DUP4 PUSH2 0x43F JUMP JUMPDEST SWAP2 POP PUSH2 0x941 DUP3 PUSH2 0x902 JUMP JUMPDEST PUSH1 0x20 DUP3 ADD SWAP1 POP SWAP2 SWAP1 POP JUMP JUMPDEST PUSH0 PUSH1 0x20 DUP3 ADD SWAP1 POP DUP2 DUP2 SUB PUSH0 DUP4 ADD MSTORE PUSH2 0x963 DUP2 PUSH2 0x92A JUMP JUMPDEST SWAP1 POP SWAP2 SWAP1 POP JUMP JUMPDEST PUSH0 PUSH2 0x974 DUP3 PUSH2 0x374 JUMP JUMPDEST SWAP2 POP PUSH2 0x97F DUP4 PUSH2 0x374 JUMP JUMPDEST SWAP3 POP DUP3 PUSH2 0x98F JUMPI PUSH2 0x98E PUSH2 0x8A5 JUMP JUMPDEST JUMPDEST DUP3 DUP3 DIV SWAP1 POP SWAP3 SWAP2 POP POP JUMP INVALID LOG2 PUSH5 0x6970667358 0x22 SLT KECCAK256 PUSH4 0x880F4690 PUSH21 0x4A0C39C8A0D18E01E1D2CA224E884C7E0650EFEEF DUP9 0xDE 0xCC 0xF7 SLT PUSH5 0x736F6C6343 STOP ADDMOD BYTE STOP CALLER "
		},
		"gasEstimates": {
			"creation": {
				"codeDepositCost": "502400",
				"executionCost": "infinite",
				"totalCost": "infinite"
			},
			"external": {
				"transferToMeson(uint256,address)": "infinite"
			},
			"internal": {
				"_amountFrom(uint256,uint8)": "infinite",
				"_tokenAddrFrom(uint256)": "infinite"
			}
		},
		"methodIdentifiers": {
			"transferToMeson(uint256,address)": "fb61695c"
		}
	},
	"abi": [
		{
			"inputs": [
				{
					"internalType": "address",
					"name": "mesonAddress",
					"type": "address"
				}
			],
			"stateMutability": "nonpayable",
			"type": "constructor"
		},
		{
			"inputs": [
				{
					"internalType": "uint256",
					"name": "encodedSwap",
					"type": "uint256"
				},
				{
					"internalType": "address",
					"name": "initiator",
					"type": "address"
				}
			],
			"name": "transferToMeson",
			"outputs": [],
			"stateMutability": "payable",
			"type": "function"
		}
	]
}